:10000000008000207D080000C1080000BF0800003B
:10001000C1080000C1080000C1080000C1080000BC
:10002000C1080000C1080000C1080000C1080000AC
:10003000C1080000C1080000C1080000C10800009C
:10004000C1080000C1080000C1080000C10800008C
:10005000C1080000C1080000C1080000C10800007C
:10006000C1080000C1080000C1080000C10800006C
:10007000C1080000C1080000C1080000C10800005C
:10008000C1080000C1080000C1080000C10800004C
:10009000C1080000C1080000C1080000C10800003C
:1000A000C1080000C1080000C1080000C10800002C
:1000B000C1080000C1080000C1080000C10800001C
:1000C000C1080000C1080000C1080000C10800000C
:1000D000C1080000C1080000C1080000C1080000FC
:1000E000C1080000C1080000C1080000C1080000EC
:1000F000C1080000C1080000C1080000C1080000DC
:10010000B93B0000C1080000C1080000C1080000A0
:10011000C1080000C1080000C1080000C1080000BB
:10012000C1080000C1080000C1080000C1080000AB
:10013000C1080000C1080000C1080000C10800009B
:1001400000000000000000000000000000000000AF
:1007C00010B5054C237833B9044B13B1044800E04D
:1007D00000BF0123237010BDB800002000000000FE
:1007E0003C55000008B5034B1BB10349034800E02A
:1007F00000BF08BD00000000BC0000203C55000008
:10080000A3F5803A704700BF174B002B08BF134B6E
:100810009D46FFF7F5FF00218B460F461348144A0B
:10082000121A04F000FE0E4B002B00D098470D4B1F
:10083000002B00D098470020002104000D000D4837
:10084000002802D00C4800E000BF04F0BBFD2000EF
:10085000290003F0F5F904F0A1FD00BF0000080035
:10086000000000000000000000800020B800002010
:10087000F8000020000000000000000000F066F812
:10088000104C114DAC420ADA21686268A3689B00E3
:10089000043BA2BFC858D050FAE70C34F2E70B4B28
:1008A0000B4CA34209DA19685A6892000020043AF6
:1008B000A4BF8850FBE70833F3E7FFF7A5FFFEE787
:1008C000FEE70000205600002C5600002C560000C9
:1008D0002C56000080B483B000AF0346FB7197F93B
:1008E0000730002B0BDBFB7903F01F02074997F958
:1008F00007305B09012000FA02F241F8232000BF13
:100900000C37BD465DF8047B704700BF00E100E096
:1009100080B483B000AF0346FB7197F90730002B1A
:100920000CDBFB7903F01F02074997F907305B09DD
:10093000012000FA02F2603341F8232000BF0C3797
:10094000BD465DF8047B704700E100E080B500AF74
:100950001D4B1E4A9A601C4BD3F888301A4A43F448
:100960007003C2F888301A4B03F580531A464FF4CF
:1009700000439366174B03F500531A464FF0FF33BD
:100980001366144B03F500531A464FF6DF73536694
:10099000114B02221A60BFF34F8F00BFBFF36F8F5E
:1009A00000BF0320FFF7B4FF0A4B03F500531A46BC
:1009B0004FF44033D3600320FFF78CFF054B4FF417
:1009C00040321A6100BF80BD00ED00E00000000071
:1009D0000080005000800044D0ED00E080B400AF03
:1009E000034B1B681846BD465DF8047B704700BF8B
:1009F0000800002080B582B000AF00237B600E4B62
:100A00001B6F03F00703032B09D0032B0ED8012B18
:100A100009D0022B0AD1FFF7E1FF786007E0074B0E
:100A20001B687B6003E0064B7B6000E0FEE77B68B1
:100A300018460837BD4680BD0080005000000020E9
:100A4000002D310180B582B000AFFFF7D3FF786091
:100A5000094B1B6F1B0B03F00F033B603B6801331B
:100A60007A68B2FBF3F37B60044A7B6813607B68AF
:100A700018460837BD4680BD008000500C0000209D
:100A800080B400AF024B1846BD465DF8047B70474A
:100A900000B4C40480B400AF034B1B681846BD46C5
:100AA0005DF8047B704700BF0000002080B400AFF9
:100AB00000231846BD465DF8047B704780B400AF44
:100AC000024B1846BD465DF8047B7047002D31018E
:100AD00080B400AF4FF400431846BD465DF8047B78
:100AE000704780B400AF4FF47A731846BD465DF886
:100AF000047B704780B400AF034B1B681846BD46AB
:100B00005DF8047B704700BF0400002080B500AF93
:100B1000FFF798FF0346184680BD80B487B000AF4A
:100B2000F860B9607A607B68002B04D0FB6803F53D
:100B300080537B6103E0FB6803F500537B617B69B5
:100B40000121BA6801FA02F21A6000BF1C37BD46E3
:100B50005DF8047B704780B483B000AF7860396083
:100B60007B681A683B6822FA03F303F00103184616
:100B70000C37BD465DF8047B7047000080B500AFC0
:100B800000BF04210448FFF7E6FF0346002BF8D11D
:100B900000BF00BF80BD00BF8440005080B500AFE3
:100BA000FFF7ECFF044BD3F884309B0903F00303F9
:100BB000DBB2184680BD00BF0040005080B400AFDB
:100BC000054B1B6A044A43F00103136200BFBD4694
:100BD0005DF8047B704700BF00C0075080B400AFD1
:100BE000054B1B6A044A23F00103136200BFBD4694
:100BF0005DF8047B704700BF00C0075080B400AFB1
:100C0000064BDB6903F48033002B14BF0123002360
:100C1000DBB21846BD465DF8047B70470000035008
:100C200080B400AF034B0022DA6300BFBD465DF81D
:100C3000047B70470000035080B400AF044B41F6C2
:100C40007132DA6300BFBD465DF8047B704700BFB8
:100C50000000035080B400AF034B9B681846BD46AC
:100C60005DF8047B704700BF0000035080B483B080
:100C700000AF7860044A7B68936000BF0C37BD46C4
:100C80005DF8047B704700BF0000035080B485B05E
:100C900000AF78600023FB607B68B3F5607F21D0F4
:100CA0007B68B3F5607F34D87B68B3F5207F29D0AB
:100CB0007B68B3F5207F2CD87B68B3F5007F19D013
:100CC0007B68B3F5007F24D87B68002B03D07B685A
:100CD000B3F5C07F1DD1134B1B6F1B0B03F00F032C
:100CE000FB6017E00F4BD3F880301B0903F00303C0
:100CF000FB600FE00B4BD3F890301B0E03F01F038B
:100D0000FB6007E0074B1B6F9B0A03F00103FB60CE
:100D100000E000BFFB68013318461437BD465DF89C
:100D2000047B70470080005090B583B000AF7860BE
:100D300039607B68B3F5607F4BD07B68B3F5607F2B
:100D400000F281807B68B3F5207F6BD07B68B3F5C0
:100D5000207F78D87B68B3F5007F50D07B68B3F5EF
:100D6000007F70D87B68002B03D07B68B3F5C07F11
:100D700069D13B68012B0AD03B68022B07D03B6846
:100D8000042B04D03B68082B01D03B68102B00BF1C
:100D900001F0B2FA01F050FA01F07CF82C4B1B6F15
:100DA00023F470423B68013B1B03294913430B6743
:100DB000FFF7ACFE0446FFF7F1FE0346C3F1020362
:100DC0001946204600F0CCFF01F040FA01F072F81D
:100DD0003AE03B68012B04D03B68022B01D03B6812
:100DE000042B00BF1A4BD3F8803023F030023B684D
:100DF000013B1B0116491343C1F8803024E03B68D6
:100E0000002B02D03B68202B00BF114BD3F8903051
:100E100023F0F8523B68013B1B060D491343C1F810
:100E2000903011E03B68012B01D03B68022B00BFE2
:100E3000074B1B6F23F480623B68013B9B02044914
:100E400013430B6700E000BF00BF0C37BD4690BDE9
:100E50000080005080B584B000AF78600B46FB7016
:100E60000023FB607B685B09002B0FD07B685B096C
:100E7000012B02D10C4BFB6008E07B685B09022B65
:100E800002D10A4BFB6001E0094BFB607B6803F079
:100E90001F03BB60FB781A46B968F868FFF73DFE90
:100EA00000BF1037BD4680BD648000506880005090
:100EB0006082005090B585B000AF78600023FB6081
:100EC0000023BB607B68B3F5F06F00F0CC827B68D9
:100ED000B3F5F06F00F2CE827B68B3F5E06F00F0FF
:100EE000BB827B68B3F5E06F00F2C4827B68B3F528
:100EF000D06F00F0AA827B68B3F5D06F00F2BA829F
:100F00007B68B3F5C06F00F099827B68B3F5C06F62
:100F100000F2B0827B68B3F5B06F00F081827B682D
:100F2000B3F5B06F00F2A6827B68B3F5A06F00F056
:100F300070827B68B3F5A06F00F29C827B68B3F58A
:100F4000906F00F05F827B68B3F5906F00F2928241
:100F50007B68B3F5806F00F04E827B68B3F5806FDD
:100F600000F288827B68B3F5607F00F034827B6892
:100F7000B3F5607F00F27E827B68B3F5407F00F0BE
:100F80001D827B68B3F5407F00F274827B68B3F505
:100F9000207F00F007827B68B3F5207F00F26A8231
:100FA0007B68B3F5007F00F0F1817B68B3F5007FCB
:100FB00000F260827B68B3F5C07F00F0E2817B685D
:100FC000B3F5C07F00F256827B68002B00F0D98118
:100FD0007B68B3F5807F00F24D827B68202BC0F0E8
:100FE00049827B68203BE02B00F2448201A252F848
:100FF00023F000BF83130000A5130000831300003B
:10100000A5130000F7130000F7130000F71300000A
:10101000F7130000A5130000A51300002114000021
:10102000BD1300003D1400004B140000BD13000070
:10103000A5130000A5130000A513000075140000FF
:10104000751400007514000075140000751400007C
:10105000751400001314000005140000A51300000F
:10106000A5130000A5130000671400005914000028
:10107000A51300007514000075140000751400001D
:10108000751400007514000075140000751400003C
:10109000751400007514000075140000751400002C
:1010A000751400007514000083130000751400000F
:1010B000831300008313000083130000F713000064
:1010C00075140000751400007514000075140000FC
:1010D00075140000751400007514000075140000EC
:1010E00075140000751400007514000075140000DC
:1010F00075140000831300008313000075140000B2
:1011000075140000751400007514000075140000BB
:1011100075140000751400007514000075140000AB
:10112000751400007514000075140000751400009B
:10113000751400007514000075140000751400008B
:10114000751400007514000075140000751400007B
:10115000751400007514000075140000751400006B
:10116000751400007514000075140000751400005B
:101170007514000079130000751400007514000048
:10118000751400007514000075140000751400003B
:10119000751400007514000075140000751400002B
:1011A000751400007514000075140000751400001B
:1011B000751400007514000075140000751400000B
:1011C00075140000751400007514000075140000FB
:1011D00075140000751400007514000075140000EB
:1011E00075140000751400007514000075140000DB
:1011F00075140000751400007514000075140000CB
:1012000075140000751400007514000075140000BA
:1012100075140000751400007514000075140000AA
:10122000751400007514000075140000751400009A
:10123000751400007514000075140000751400008A
:10124000751400007514000075140000751400007A
:10125000751400007514000075140000751400006A
:10126000751400007514000075140000751400005A
:10127000751400007514000075140000751400004A
:10128000751400007514000075140000751400003A
:10129000751400007514000075140000751400002A
:1012A000751400007514000075140000751400001A
:1012B000751400007514000075140000751400000A
:1012C00075140000751400007514000075140000FA
:1012D00075140000751400007514000075140000EA
:1012E00075140000751400007514000075140000DA
:1012F00075140000751400007514000075140000CA
:1013000075140000751400007514000075140000B9
:1013100075140000751400007514000075140000A9
:101320007514000075140000751400007514000099
:101330007514000075140000751400007514000089
:101340007514000075140000751400007514000079
:101350007514000075140000751400007514000069
:101360007514000075140000751400007514000059
:10137000751400002F140000FFF73CFB0346FB60D0
:1013800079E0FFF75FFB0346FB6074E0FFF732FB99
:1013900004464FF40070FFF779FC0346B4FBF3F307
:1013A000FB6068E0FFF74EFB04464FF42070FFF748
:1013B0006DFC0346B4FBF3F3FB605CE0FFF742FB1C
:1013C00004464FF42070FFF761FC0346B4FBF3F3CF
:1013D0005B08FB604FE007F108030021184600F0AE
:1013E0007FFDBC684FF46070FFF750FC0346B4FB10
:1013F000F3F3FB603FE007F10C030021184600F017
:10140000CFFD38E007F10C030021184600F0BEFCC8
:1014100031E007F10C030021184600F00FFD2AE02F
:1014200007F10C030021184600F0D0FE23E007F17D
:101430000C030021184600F0B5FF1CE007F10C0377
:101440000021184600F0E8FD15E007F10C0300212B
:10145000184600F05DFF0EE007F10C03002118466E
:1014600000F00EFF07E007F10C030021184600F022
:101470000FFE00E000BFFB6818461437BD4690BD64
:1014800080B584B000AF78600023FB607B68B3F563
:10149000086F00F02E817B68B3F5086F00F23E8183
:1014A0007B68B3F5006F00F016817B68B3F5006FC1
:1014B00000F234817B68B3F5F06F00F005817B6842
:1014C000B3F5F06F00F22A817B68B3F5E06F00F0AE
:1014D0001E817B68B3F5E06F00F220817B68B3F575
:1014E000D06F00F0FF807B68B3F5D06F00F21681FB
:1014F0007B68B3F5C06F00F0E0807B68B3F5C06F28
:1015000000F20C817B68B3F5B06F00F0C1807B689E
:10151000B3F5B06F00F202817B68B3F5A06F00F005
:10152000EF807B68B3F5A06F00F2F8807B68B3F5BD
:10153000906F00F0D0807B68B3F5906F00F2EE8082
:101540007B68B3F5806F00F0AA807B68B3F5806F8D
:1015500000F2E4807B68B3F5807F00F0A7807B68B1
:10156000B3F5807F00F2DA807B68522B6AD87B6803
:10157000242BC0F0D3807B68243B2E2B00F2CE803E
:1015800001A252F823F000BF9F1600009F16000032
:101590009F1600009F1600001D1700001D17000079
:1015A000911600001D170000BB160000E516000094
:1015B0001D1700001D1700001D1700001D1700005B
:1015C0001D1700001D1700001D1700001D1700004B
:1015D0001D1700001D170000011700001D17000057
:1015E0001D1700001D1700001D170000C916000080
:1015F0000F1700001D1700001D1700001D17000029
:101600001D1700001D1700001D1700001D1700000A
:101610001D1700001D1700001D1700001D170000FA
:101620001D1700001D1700001D1700001D170000EA
:101630001D1700001D1700001D1700001D170000DA
:101640009F1600007B68802B68D1374B1B6F03F01F
:101650000703013B032B17D801A252F823F000BF68
:101660008316000071160000771600007D1600003A
:101670000523FB600BE00323FB6008E00723FB600E
:1016800005E00223FB6002E00023FB6000BF46E0B0
:1016900007F10C031946002000F098FD3FE007F128
:1016A0000C031946002000F07BFC38E007F10C0326
:1016B0001946002000F076FE31E007F10C031946D0
:1016C000002000F0A9FC2AE007F10C0319460020D5
:1016D00000F0DEFC23E007F10C031946002000F0C7
:1016E00055FB1CE007F10C031946002000F010FE2A
:1016F00015E007F10C031946002000F00DFC0EE088
:1017000007F10C031946002000F098FB07E007F1F1
:101710000C031946002000F0B3FD00E000BFFB6899
:1017200018461037BD4680BD0080005090B585B08A
:1017300000AF786039600023FB600023FB72002358
:10174000BB727B68B3F5086F00F096827B68B3F5D7
:10175000086F00F2FE827B68B3F5006F00F026820E
:101760007B68B3F5006F00F2F4827B68B3F5F06F2D
:1017700000F0F7817B68B3F5F06F00F2EA827B68D6
:10178000B3F5E06F00F0C0827B68B3F5E06F00F264
:10179000E0827B68B3F5D06F00F040827B68B3F5E0
:1017A000D06F00F2D6827B68B3F5C06F00F0B481D1
:1017B0007B68B3F5C06F00F2CC827B68B3F5B06F85
:1017C00000F00F817B68B3F5B06F00F2C2827B68D6
:1017D000B3F5A06F00F080827B68B3F5A06F00F2D4
:1017E000B8827B68B3F5906F00F0E0817B68B3F559
:1017F000906F00F2AE827B68B3F5806F00F00981D4
:101800007B68B3F5806F00F2A4827B68B3F5807FBC
:1018100000F021817B68B3F5807F00F29A827B68BB
:10182000522B69D87B68242BC0F093827B68243BC1
:101830002E2B00F28E8201A252F823F0131A000020
:10184000131A0000131A0000131A0000531D0000A1
:10185000531D0000E3190000531D0000191B000078
:101860001D1C0000531D0000531D0000531D0000EF
:10187000531D0000531D0000531D0000531D0000A8
:10188000531D0000531D0000531D0000D91C000013
:10189000531D0000531D0000531D0000531D000088
:1018A000631B0000091D0000531D0000531D0000B4
:1018B000531D0000531D0000531D0000531D000068
:1018C000531D0000531D0000531D0000531D000058
:1018D000531D0000531D0000531D0000531D000048
:1018E000531D0000531D0000531D0000531D000038
:1018F000531D0000131A00007B68802B40F02982E2
:101900003B68023B052B31D801A252F823F000BFFF
:10191000671900002F1900006D1900002919000037
:101920006D190000611900000223FB601FE0032312
:10193000FB60AB4B03F580531A464FF4002353660C
:10194000A84B9B6A03F00203002B14BF0123002362
:10195000FB72A44B03F580531A460123936206E001
:101960000423FB6003E00123FB6000E000BF0121D2
:10197000022000F0A1FE00F0BFFC00F05DFC00F0D2
:1019800089FA974B1B6F23F007029549FB681343B5
:101990000B67FFF7BBF80446FFF700F90346C3F1F6
:1019A00002031946204600F0DBF90121002000F077
:1019B00057FE00F04BFC00F07DFAFB7A83F0010348
:1019C000DBB2002B09D03B68032B08D1854B03F514
:1019D00000531A460123936202E000BFBAE100BF40
:1019E000B8E13B68022B05D03B680F2B05D10123E2
:1019F000FB6003E00223FB6000E000BF784BD3F8FC
:101A0000803123F003027649FB681343C1F880312B
:101A1000A0E13B68052B09D03B68052B0FD83B683C
:101A2000022B09D03B68032B03D008E00123FB60A5
:101A300006E00223FB6003E00323FB6000E000BF3D
:101A4000674BD3F8203123F003026549FB68134349
:101A5000C1F820317EE13B68083B082B5AD801A22F
:101A600052F823F0891A0000891A0000151B0000A3
:101A7000891A0000CF1A0000151B0000151B00007A
:101A8000151B0000891A0000554B5B6E03F4803370
:101A9000002B0CBF01230023BB72514B03F5805375
:101AA0001A464FF480335366FFF788F8BB7A002B51
:101AB00006D04B4B03F500531A464FF48033536660
:101AC000494B1B68484A23F00403136023E0444B4E
:101AD0005B6E03F48033002B0CBF01230023BB7229
:101AE0003F4B03F580531A464FF480335366FFF79C
:101AF00075F8BB7A002B06D0394B03F500531A4614
:101B00004FF480335366384B1B68374A43F0040365
:101B1000136000E000BF1DE13B680B2B12D03B6857
:101B20000B2B12D83B68082B09D03B68082B0CD331
:101B30003B68093B012B08D80123FB6006E0022328
:101B4000FB6003E00323FB6000E000BF244BD3F8FD
:101B5000403123F003022249FB681343C1F84031AE
:101B6000F8E03B680B2B12D03B680B2B12D83B687C
:101B7000082B09D03B68082B0CD33B68093B012B91
:101B800008D80123FB6006E00223FB6003E0032387
:101B9000FB6000E000BF124BD3F8603123F003027A
:101BA0000F49FB681343C1F86031D3E03B68023B47
:101BB000052B27D801A252F823F000BFED1B00002F
:101BC000DB1B0000FF1B0000D51B0000F91B000001
:101BD000F31B00000123FB6015E00223FB6012E011
:101BE0000080005000C0005010E000E00323FB60C4
:101BF00009E00423FB6006E00523FB6003E0062305
:101C0000FB6000E000BF554BD3F8243123F00702FE
:101C10005249FB681343C1F824319BE03B68083B01
:101C2000062B1DD801A252F823F000BF4F1C000064
:101C3000491C0000491C0000551C0000611C0000EC
:101C4000611C00005B1C00000123FB6009E0022313
:101C5000FB6006E00323FB6003E00423FB6000E07D
:101C600000BF3E4BD3F8003223F007023B49FB682C
:101C70001343C1F800326DE03B68013B072B1FD8CE
:101C800001A252F823F000BFBB1C0000C11C0000E1
:101C9000A91C0000C11C0000C11C0000C11C0000E8
:101CA000B51C0000AF1C00000123FB6009E002230B
:101CB000FB6006E00323FB6003E00023FB6000E021
:101CC00000BF264BD3F8003123F003022349FB6801
:101CD0001343C1F800313DE03B680F2B03D03B6854
:101CE000102B03D005E00123FB6002E00223FB6020
:101CF00000BF1A4BD3F8203223F003021749FB68C8
:101D00001343C1F8203225E03B680B2B12D03B680F
:101D10000B2B12D83B68082B09D03B68082B0CD33F
:101D20003B68093B012B08D80123FB6006E0022336
:101D3000FB6003E00323FB6000E000BF074BD3F828
:101D4000403223F003020549FB681343C1F84032D7
:101D500000E000BF00BF1437BD4690BD00800050BA
:101D600080B582B000AF786039603B68002B04DD3D
:101D70000121786800F0F4F903E00021786800F0B0
:101D8000EFF900BF0837BD4680BD000080B584B0C4
:101D900000AF786039600023FB60274BD3F8243113
:101DA00003F00703013B052B32D801A252F823F0C0
:101DB000C91D0000E11D0000F91D0000051E000006
:101DC000D51D0000ED1D0000FEF708FEF86005239C
:101DD000BB6020E0FEF702FEF8600623BB601AE05D
:101DE000FEF758FEF8600323BB6014E0FEF752FED6
:101DF000F8600423BB600EE0FEF760FEF86002238B
:101E0000BB6008E0FEF752FEF8600723BB6002E00B
:101E10000023BB6000BF7B68002B02D07B68FA68A0
:101E20001A603B68002B02D03B68BA681A6000BF9A
:101E30001037BD4680BD00BF0080005080B582B025
:101E400000AF78603960124BD3F8203203F00303FF
:101E5000012B02D0022B05D009E03968786800F028
:101E60009FF811E03968786800F0D6F80CE07B68DC
:101E7000002B02D07B6800221A603B68002B02D046
:101E80003B6800221A6000BF00BF0837BD4680BD16
:101E90000080005080B400AF054B03F580531A4614
:101EA0004FF48033136700BFBD465DF8047B704775
:101EB0000080005080B500AF8020FEF7FBFF034696
:101EC000054A934206D8054B03F500531A464FF4D2
:101ED0008033136700BF80BD005A6202008000504B
:101EE00080B584B000AF786039600023FB60FEF7F6
:101EF00081FDF8600D23BB607B68002B02D07B68FE
:101F0000FA681A603B68002B02D03B68BA681A6016
:101F100000BF1037BD4680BD80B584B000AF78608B
:101F200039600023FB601D4BD3F8003103F003033D
:101F3000032B20D801A252F823F000BF711F00002C
:101F40004D1F0000591F0000651F0000FEF7A2FD95
:101F5000F8600323BB6011E0FEF7CCFDF8600823B6
:101F6000BB600BE0FEF7A2FDF8600723BB6005E055
:101F70000123BB6002E00023BB6000BF7B68002B35
:101F800002D07B68FA681A603B68002B02D03B687D
:101F9000BA681A6000BF1037BD4680BD008000508F
:101FA00080B584B000AF786039600023FB60194BC6
:101FB000D3F8203103F00303032B12D0032B16D8E0
:101FC000012B02D0022B06D011E0FEF707FDF860CE
:101FD0000523BB600EE0FEF75DFDF8600323BB60E8
:101FE00008E0FEF76BFDF8600223BB6002E000230F
:101FF000BB6000BF7B68002B02D07B68FA681A6068
:102000003B68002B02D03B68BA681A6000BF1037EB
:10201000BD4680BD0080005080B584B000AF7860C0
:1020200039600023FB60194BD3F8403103F0030300
:10203000032B12D0032B16D8012B02D0022B06D073
:1020400011E0FEF745FDF8600923BB600EE0FEF7E6
:1020500051FDF8600823BB6008E0FEF742FDF86020
:102060000B23BB6002E00023BB6000BF7B68002B3A
:1020700002D07B68FA681A603B68002B02D03B688C
:10208000BA681A6000BF1037BD4680BD008000509E
:1020900080B584B000AF786039600023FB60194BD5
:1020A000D3F8603103F00303032B12D0032B16D8AF
:1020B000012B02D0022B06D011E0FEF709FDF860DB
:1020C0000923BB600EE0FEF715FDF8600823BB6036
:1020D00008E0FEF706FDF8600B23BB6002E000237A
:1020E000BB6000BF7B68002B02D07B68FA681A6077
:1020F0003B68002B02D03B68BA681A6000BF1037FB
:10210000BD4680BD0080005080B485B000AF7860CF
:1021100039604FF44013FB603B68002B0AD17B68A9
:102120000E4A934203D94FF48013FB600FE0002363
:10213000FB600CE03B68002B09DD7B68074A93429B
:1021400003D94FF48013FB6001E00023FB60FB68C0
:1021500018461437BD465DF8047B7047005A62028A
:1021600080B584B000AF78603960174B03F58053B9
:102170001A464FF4003393660020FEF787FD0246AF
:102180007B6802FB03F37B60FEF738FD0346FB73BD
:10219000FEF752FDFEF75EFD034623F44013BB60DD
:1021A00039687868FFF7B0FF0246BB681343BB602D
:1021B000B868FEF75BFDFB7B002B01D0FEF730FD1E
:1021C00000BF1037BD4680BD0080005080B584B090
:1021D00000AF786039600023BB60164BD3F88031C4
:1021E00003F00303012B02D0022B09D00FE007F10B
:1021F000080300211846FFF7D3FE0F23FB6009E018
:10220000FEF75CFC0346BB600223FB6002E0002398
:10221000FB6000BF7B68002B02D0BA687B681A6045
:102220003B68002B02D03B68FA681A6000BF103789
:10223000BD4680BD0080005080B500AF02214FF444
:102240002070FEF771FD00BF80BD000080B582B038
:1022500000AF02237B604FF4C070FEF72BFE0346F5
:10226000064A934201D801237B6079684FF42070BD
:10227000FEF75AFD00BF0837BD4680BD80F0FA0268
:1022800080B584B000AF786039600023FB60194BE3
:10229000D3F8403203F00303032B12D0032B16D8DC
:1022A000012B02D0022B06D011E0FEF711FCF860E2
:1022B0000923BB600EE0FEF71DFCF8600823BB603D
:1022C00008E0FEF70EFCF8600B23BB6002E0002381
:1022D000BB6000BF7B68002B02D07B68FA681A6085
:1022E0003B68002B02D03B68BA681A6000BF103709
:1022F000BD4680BD0080005080B500AFFEF7C0FB3A
:10230000034600211846FFF72BFF00BF80BD0000E9
:1023100080B584B000AF786039600023FB60204B4B
:10232000D3F8003203F00703013B032B24D801A2AA
:1023300052F823F045230000512300005D230000E4
:1023400069230000FEF7C4FBF8600923BB6016E0B8
:10235000FEF7D0FBF8600823BB6010E0FEF7C1FB7E
:10236000F8600B23BB600AE0FEF76CFB03469B0A98
:10237000FB600E23BB6002E00023BB6000BF7B68F4
:10238000002B02D07B68FA681A603B68002B02D0F1
:102390003B68BA681A6000BF1037BD4680BD00BFF9
:1023A0000080005080B584B000AF786039600023B1
:1023B000FB60124B1B6803F00403002B06D0FEF7F2
:1023C00041FB0346FB600C23BB6007E007F10802FA
:1023D00007F10C0311461846FFF71EFE7B68002B21
:1023E00002D0FA687B681A603B68002B02D0BA689A
:1023F0003B681A6000BF1037BD4680BD10E000E0AA
:1024000080B483B000AFEFF310833B603B687B6028
:1024100072B600BF7B6818460C37BD465DF8047B7A
:10242000704780B483B000AF78607B68002B01D127
:1024300062B600BF00BF0C37BD465DF8047B704735
:1024400080B500AFFEF7FEFA00BF80BD80B483B058
:1024500000AF786039607B681A683B6822FA03F342
:1024600003F0010318460C37BD465DF8047B704746
:1024700080B500AF00BF04210448FFF7E7FF034623
:10248000002BF8D100BF00BF80BD00BF84400050CA
:1024900080B500AFFFF7ECFF044BD3F884309B0905
:1024A00003F00303DBB2184680BD00BF00400050BC
:1024B00080B483B000AF0346FB71FB79013B4FF45E
:1024C000806202FA03F318460C37BD465DF8047BC0
:1024D0007047000080B584B000AF0346FB71FB7904
:1024E000002B13D12C4B00221A602C4B03F5805388
:1024F0001A464FF400335366294B5B68012B47D1D2
:10250000264BD3F80031244A136041E0224B1B686C
:10251000002B3DD0224B5B68012B39D01F4A1E4B4C
:102520001B68C2F800318020FEF7AAFF0346052B86
:1025300028D14FF4C070FEF7A9FBF860FB68012BAF
:1025400004D102214FF4C070FEF7EEFB144B03F5EB
:1025500000531A4607231361114B03F580531A46A3
:102560000123536000BF0E4B1B6903F00103002BD6
:10257000F9D0FB68012B0BD101214FF4C070FEF79D
:10258000D3FB05E0064B03F580531A460123536045
:1025900000BF1037BD4680BDD8000020008000502D
:1025A00000C0015080B400AF00BFBD465DF8047BA1
:1025B000704780B400AF00BFBD465DF8047B704734
:1025C00080B400AF00BFBD465DF8047B704780B4A7
:1025D00000AF00BFBD465DF8047B704780B584B096
:1025E00000AF0346FB71FB79002B02D00020FFF700
:1025F00071FF144B1B69134A43F004031361FFF787
:10260000D1FFFFF7D6FFFFF7FBFEF86002F078FF7F
:10261000F868FFF706FFFFF7DAFFFFF7D1FFFB7956
:10262000002B02D00120FFF755FFFB7983F0010357
:10263000DBB2002B01D0FFF703FF00BF1037BD4610
:1026400080BD00BF00ED00E080B483B000AF034662
:10265000FB7100BF0C37BD465DF8047B704700007E
:1026600080B584B000AF78600B46FB707B68002BB0
:1026700003D1FEF7BFF9F86001E07B68FB600C4B0B
:102680001B78002B09D0FB680A4A934205D8FB78D7
:102690001946012000F010F805E0FB7819460220E9
:1026A00000F00AF800BF00BF1037BD4680BD00BF74
:1026B000D4000020005A620290B587B000AF0346F4
:1026C0000A46FB711346BB71FFF7E2FE03461A464A
:1026D000FB7993423CD0FEF78DF978617B693B61D1
:1026E000FB79012B03D101217869FFF739FBFFF753
:1026F00087FEF860184B03F500531A464FF000733D
:102700005366FB791846FFF79FFF134CFB79184679
:10271000FFF7CEFE0346236702E00F4BD3F8843069
:102720000D4B5B6E03F00073002B06D10A4BD3F800
:10273000843003F02003002BEFD0F868FFF771FE20
:10274000FB79022B05D100217869FFF709FB00E036
:1027500000BF1C37BD4690BD0040005080B586B01C
:1027600000AFF860B9607A60FFF74AFE7861FB68F5
:102770001A68BB68DB431A407968BB680B401A4390
:10278000FB681A607869FFF74CFE00BF1837BD463A
:1027900080BD000080B483B000AF03463960FB7198
:1027A000FB79002B07D0FB79012B04D0FB79022B9E
:1027B00001D0FB79032B0A48FA7901213B68994043
:1027C00013465B0013441B01034403F5005310330D
:1027D000196000BF0C37BD465DF8047B704700BF31
:1027E00000C0035080B483B000AF03463960FB7172
:1027F000FB79002B07D0FB79012B04D0FB79022B4E
:1028000001D0FB79032B0A48FA7901213B689940F2
:1028100013465B0013441B01034403F5805310333C
:10282000196000BF0C37BD465DF8047B704700BFE0
:1028300000C0035080B584B000AFB9607A603B60DF
:102840000346FB73FB7B002B07D0FB7B012B04D0E3
:10285000FB7B022B01D0FB7B032B7B68002B0DD075
:102860003B68002B05D0FB7BB9681846FFF7BAFF21
:1028700004E0FB7BB9681846FFF78CFFBB68072BA9
:1028800018D8FA7B13465B0013441B01043303F191
:10289000A04303F57033BA6892000F2101FA02F0E9
:1028A000BA689200796801FA02F201461846FFF709
:1028B00055FF19E0FA7B13465B0013441B010C33F0
:1028C00003F1A04303F57033BA68083A92000F2170
:1028D00001FA02F0BA68083A9200796801FA02F245
:1028E00001461846FFF73AFF7B68002B0DD13B6885
:1028F000002B05D0FB7BB9681846FFF773FF04E097
:10290000FB7BB9681846FFF745FF00BF1037BD468F
:1029100080BD80B483B000AF78607B685B6F184681
:102920000C37BD465DF8047B704780B483B000AFC0
:1029300078607B68DB6F18460C37BD465DF8047B1A
:10294000704780B483B000AF78607B68D3F8843080
:1029500018460C37BD465DF8047B704780B483B0E1
:1029600000AF78607B68D3F88C3018460C37BD46D2
:102970005DF8047B704780B483B000AF7860396045
:102980007B6803F500531A463B68536200BF0C375F
:10299000BD465DF8047B704780B483B000AF7860BB
:1029A00039607B6803F500531A463B68936200BFA9
:1029B0000C37BD465DF8047B704780B483B000AF30
:1029C000786039607B683A68DA6000BF0C37BD46D2
:1029D0005DF8047B704780B483B000AF786000BFBF
:1029E0007B685B6903F08073002BF9D17B6803F58A
:1029F00000531A460123536000BF0C37BD465DF8F3
:102A0000047B704780B483B000AF78607B6803F5C7
:102A100080531A460123536000BF0C37BD465DF852
:102A2000047B704780B487B000AFF860B96013468C
:102A3000FB71FB79022B02DC002B04DA1EE0033B66
:102A4000022B1BD812E0BB6823F07F43BA6802F464
:102A50000002002A02D04FF07F4200E00022134320
:102A60003B61BB681B0EDBB23B7508E0BB6823F023
:102A7000FF033B61BB68DBB23B7500E000BFFB6856
:102A80001A4607F1100393E8030082E80300F86890
:102A90001C37BD465DF8047B7047000080B594B0DC
:102AA00002AFF860B9607A600022B149F86800F0BE
:102AB000ABFC034687F83F30BB685B79FB8597F832
:102AC0003F309BB2FA8D9A4202D3FB8D87F83F309C
:102AD000F868FFF780FFBB681B7987F83E3097F8EE
:102AE0003E30002B14D12A20FEF7E4F9B863BB6B0B
:102AF0009F4A934205D397F83F30BA6BB2FBF3F38A
:102B0000BB63B96BF86800F039FC034687F83E30C8
:102B1000BB68DB781B0103F0300297F83E301B04E2
:102B200003F4FE031A4397F83F301B0703F0E0431A
:102B300013437B64BB681B78002B03D07B6C43F092
:102B400002037B64BB685B78002B03D07B6C43F093
:102B500004037B64BB689B78002B03D07B6C43F041
:102B600008037B64FB687A6C9A60BB68DB881A4652
:102B7000FB681A61BB681B891B04BA6852891A4337
:102B8000FB681A6200233B64AAE279683A6C134638
:102B90009B0013449B000B441B7887F82D30796809
:102BA0003A6C13469B0013449B000B4408331B688C
:102BB000FB8597F82D30002B01D16E4900E06E495E
:102BC00097F82D2097F83F30009313460022F868BD
:102BD00000F04CFCB862BB6A7B62FB8D7B847A8C14
:102BE0007B6A934238BF1346BB62FA683B6C1B0199
:102BF000134448331A68614B13407B6497F82D30B7
:102C000003F003027B6C42EA030178683A6C1346D6
:102C10009B0013449B00034401331B789B0003F08B
:102C20001C03194378683A6C13469B0013449B00BD
:102C3000034402331B781B0303F4E0431943786811
:102C40003A6C13469B0013449B00034403331B78E8
:102C50001B0403F4E023194378683A6C13469B0085
:102C600013449B00034410331B785B0503F460039B
:102C7000194378683A6C13469B0013449B00034445
:102C800004331B781B0703F0405341EA0302F96841
:102C90003B6C1B010B4448331A60FA683B6C1B0108
:102CA000134448331B681B0B03F00703FB61FB69EC
:102CB000013B042B22D801A252F823F0D12C0000B2
:102CC000D12C0000DB2C0000E72C0000F12C0000D0
:102CD0002B4BD3F88031BB8715E0294BD3F88031DB
:102CE0001B0CBB870FE0264BD3F88431BB870AE06F
:102CF000234BD3F884311B0CBB8704E0204BD3F863
:102D00008031BB8700BF97F82D30002B40F0DA816F
:102D10004FF000037B63FA683B6C1B01134448339C
:102D20001B681B0B03F00703FB61FB69012B02D03F
:102D3000FB69022B04D1124BD3F88031BB877AE0B8
:102D4000FB69032B2AD10E4BD3F880311B0CBB87B8
:102D500097F82D30002B15D1094BD3F88C311B0C73
:102D60001BB207EE903AF8EEE77AC7ED0D7A62E013
:102D7000005A620280969800404B4C00E08F18CFBA
:102D80000080E00FC94BD3F894311B0C1BB207EE47
:102D9000903AF8EEE77AC7ED0D7A4CE0FB69042B28
:102DA00021D1C24BD3F88431BB8797F82D30002B4B
:102DB0000CD1BE4BD3F88C311B0C1BB25B0007EE61
:102DC000903AF8EEE77AC7ED0D7A34E0B74BD3F8D6
:102DD00094311B0C1BB25B0007EE903AF8EEE77AD9
:102DE000C7ED0D7A27E0B14BD3F884311B0CBB87BC
:102DF00097F82D30002B0FD1AC4BD3F88C311B0C36
:102E00001BB21A4613465B00134407EE903AF8EEE5
:102E1000E77AC7ED0D7A0EE0A44BD3F894311B0C82
:102E20001BB21A4613465B00134407EE903AF8EEC5
:102E3000E77AC7ED0D7ABA8F49F6FF7313407B64CA
:102E40007B6C9B043B637B6C03F40043002B03D03F
:102E50003B6B43F000433B63FA683B6C1B0113443C
:102E600048331B689B0803F007030133012202FA71
:102E700003F3BB61BB69022B21D197F82D30002BE6
:102E80000ED18A4BD3F88C311BB207EE903AF8EE94
:102E9000E77A97ED0D7A77EE277AC7ED0D7A50E055
:102EA000824BD3F894311BB207EE903AF8EEE77AF2
:102EB00097ED0D7A77EE277AC7ED0D7A41E097F816
:102EC0002D30002B0ED1794BD3F890311BB207EE89
:102ED000903AB8EEE77AD7ED0D7A77EE677AC7EDDC
:102EE0000D7A11E0714BD3F898311BB207EE903A8E
:102EF000B8EEE77AD7ED0D7A77EE677A97ED0D7A2F
:102F000077EE277AC7ED0D7ABB6907EE903AF8EEB7
:102F1000E77AF0EE006A87EEA67AD7ED0D6AC6EE84
:102F2000877AC7ED0D7A614BD3F888311BB207EE73
:102F3000903AF8EEE77A97ED0D7A77EE277AC7EDBB
:102F40000D7A79683A6C13469B0013449B000B443E
:102F500003331B78002B1ED179683A6C13469B0013
:102F600013449B000B4403331B78184600F0E0FA2F
:102F700007EE900AF8EE677ADFED4D6A87EEA67AE3
:102F8000F7EE046AC6EE877A97ED0D7A67EE277A38
:102F9000C7ED0D7A1AE079683A6C13469B0013442A
:102FA0009B000B440C331B6807EE903AF8EE677AEF
:102FB000DFED3F6A87EEA67AF7EE046AC6EE877AFF
:102FC00097ED0D7A67EE277AC7ED0D7AD7ED0D7A7A
:102FD000B1EE007A27EE877ABB6907EE903AF8EEF9
:102FE000E76A9FED346AC6EE267ADFED336A67EE54
:102FF000A67A77EE277AC7ED0D7A3B6BB3F1004FD7
:1030000016D0BB8F07EE903AF8EEE77ADFED2B6A29
:1030100087EEA67AD7ED0D7ADFED296A77EEA67AEC
:1030200067EE277A9FED267A77EEC77AC7ED0D7A9D
:10303000D7ED0D7AF5EEC07AF1EE10FA0ADDD7ED94
:103040000D7AF1EE677AB6EE007A77EEC77AFDEE8A
:10305000E77A07E0B6EE007AD7ED0D7A77EE677A79
:10306000FDEEE77AC7ED057A7B69B3F5003F06DB35
:103070003B6B6FEA53436FEA43433B630EE07B696C
:1030800013F5003F04DA3B6B43F400333B6305E088
:103090007B69C3F311033A6B13433B63FA683B6CE0
:1030A00005331B0113443A6B1A600CE00080E00FFB
:1030B00000007A44000080430000204400000047E4
:1030C0000000004900BFBB6AC3F30902F9683B6C0A
:1030D00005331B010B4404331A603B6C01333B6422
:1030E000FB68084A934201D1022200E000223B6CB7
:1030F0009A423FF64AADF868FFF784FC00BF4837B4
:10310000BD4680BD0040005A80B584B000AFF86075
:10311000B9607A60F868FFF75EFCBB681B7803F063
:103120000703BA685278002A01D0082200E0002282
:103130001A43BB689B781B0103F030031343BA6842
:10314000D278002A02D04FF4807200E000221A43A5
:10315000FB681A67FB68DB6A23F48B3323F4807304
:10316000BA681279120202F4E0621A43BB685B7912
:103170001B0303F480531343BA689279002A02D0E8
:103180004FF4803200E000221A43FB68DA6279686B
:10319000F86800F00FF8F868FFF734FCBB68DB79DB
:1031A000002B03D00121F868FFF707FC00BF1037A0
:1031B000BD4680BD80B584B000AF786039607B6863
:1031C0005B6803F00103002B14BF01230023FB7392
:1031D0007868FFF717FC3B681B781A463B685B78FA
:1031E0001B029BB21A433B689B781B0403F4803399
:1031F00013433A68D278002A02D04FF4003200E03C
:1032000000221A437B68C3F89820FB7B83F00103FC
:10321000DBB2002B02D07868FFF7DDFB00BF103770
:10322000BD4680BD80B584B000AF78607868FFF798
:10323000E9FB7B684C4ADA6000BF7B685A694B4BFC
:103240001340002BF9D17B6800229A617B68002231
:10325000C3F8982000BF7B685B6903F44013002B20
:10326000F9D102E07868FFF754FB7B685B6903F4EF
:103270008073002BF6D17B689B6F002BF2D102E0AC
:103280007868FFF75EFB7B685B6903F40073002BD3
:10329000F6D17B68D3F88830002BF1D17868FFF73E
:1032A00044FB7868FFF75AFB7868FFF794FB7B686C
:1032B00000229A607B6800221A617B680022DA6231
:1032C0007B6800221A627B6830221A677B68302292
:1032D000C3F880200023FB6019E07A68FB681B01BB
:1032E0001344483342F260021A607A68FB6805337F
:1032F0001B0113441E4A1A607A68FB6805331B01E0
:103300001344043300221A60FB680133FB607B68BE
:10331000184A934201D1022200E00022FB689A423F
:10332000DBD80023FB6008E07B68FA6828320021C4
:1033300043F82210FB680133FB607B680D4A93421F
:1033400001D1102200E00022FB689A42ECD80A4921
:103350007868FFF710FB08497868FFF71DFB00BF8E
:103360001037BD4680BD00BF1200020052000100B0
:1033700000C002800040005A8F330F8080B586B0B5
:1033800000AF786039603B68002B18D12A20FDF728
:1033900091FD38603B68002B01D101233B603B6805
:1033A000164A93420BD9164B9B681B0F03F0070379
:1033B0007B617B6901333A68B2FBF3F33B603B68A6
:1033C00003F5742303F23F233B603B680D4AA2FBE5
:1033D00003239B0C3B603B68013B3B603B683B61CC
:1033E0007F23FB60FA683B69934228BF13463B602A
:1033F0003B68DBB218461837BD4680BD005A6202F2
:103400000040005A83DE1B4380B588B000AFF860EF
:10341000B9607A60BB68BB61134B7B617A69BB6939
:10342000934228BF1346BB607B68002B03D12A2040
:10343000FDF740FD78607A68BB6813445A1EBB688C
:10344000B2FBF3F3FB61FB69002B02D0FB69013B8C
:10345000FB61FB69032B01D90323FB61FB69DBB231
:1034600018462037BD4680BD005A620280B588B03C
:1034700000AFF860B9607A60FB70FB78002B01D177
:103480001E4A00E01E4ABB689A4206D2FB78002B17
:1034900001D11A4B00E01A4BBB607B68002B04D1B2
:1034A0002A20FDF707FDB86101E07B68BB6197F852
:1034B00028300133BA69B2FBF3F3BB61BA69BB6868
:1034C00013445A1EBB68B2FBF3F3FB61FB69002B8C
:1034D00002D0FB69013BFB61FB697B6140F2FF337A
:1034E0003B613A697B69934228BF1346FB61FB69E4
:1034F0009BB218462037BD4680BD00BF809698001D
:10350000404B4C0080B584B000AF786039603B68B8
:103510001B6F03F00703FB603B68D96FFB68DAB2EF
:103520007B681846FFF77EFA78681037BD4680BD85
:1035300080B584B000AF0346FB710023FB6007F148
:103540000803184600F0BCF9FB79042B1CD801A233
:1035500052F823F06935000071350000893500000C
:10356000793500008135000040F2BA43FB600CE081
:1035700040F2E243FB6008E040F6B833FB6004E051
:103580004FF41663FB6000E000BFFB68184610377D
:10359000BD4680BD80B485B000AF78600023FB607D
:1035A0007B68352B00F2858001A252F823F000BF22
:1035B000893600008F360000B3360000B3360000B5
:1035C000B3360000B3360000B3360000B336000057
:1035D000B3360000B3360000B3360000B336000047
:1035E000B3360000B3360000B3360000B336000037
:1035F000B3360000B3360000B3360000B336000027
:10360000B3360000B3360000B3360000B336000016
:10361000B3360000B3360000B3360000B336000006
:10362000B3360000B3360000B3360000B3360000F6
:10363000B3360000B3360000953600009B3600001C
:10364000A1360000A7360000B3360000B3360000F4
:10365000B3360000B3360000B3360000B3360000C6
:10366000B3360000B3360000B3360000B3360000B6
:10367000B3360000B3360000B3360000B3360000A6
:10368000B3360000AD3600000023FB6012E00323D8
:10369000FB600FE00123FB600CE00223FB6009E00C
:1036A0000423FB6006E00523FB6003E00623FB60C8
:1036B00000E000BFFB6818461437BD465DF8047B88
:1036C000704700BF80B485B000AF786039603B6858
:1036D000FB607B68352B0CD07B68352B43D87B682F
:1036E000012B28D07B68002B3DD07B68223B032B2D
:1036F00039D83B68042B1CD801A252F823F000BF34
:10370000153700001B370000213700002737000065
:103710002D3700000023FB600CE00123FB6009E073
:103720000223FB6006E00323FB6003E00423FB604D
:1037300000E000BF18E03B68022B0FD03B68022B73
:103740000FD83B68002B03D03B68012B03D008E067
:103750000023FB6006E00123FB6003E00223FB6023
:1037600000E000BF00E000BFFB6818461437BD460C
:103770005DF8047B704700BF80B584B000AFF8608F
:10378000B9607A60BB689AB27B689BB213439BB204
:103790001A460021F86800F005F800BF1037BD4652
:1037A00080BD000080B584B000AF78600B46FB7030
:1037B00013463B803B881B0A03F07F03FB603B887A
:1037C00003F00703BB60FB78002B0BD1FB681A02E8
:1037D000BB6813430E4943F440227B68063341F82B
:1037E000232011E0B968F868FFF76CFFB860F8684B
:1037F000FFF7D0FEF860FB681A020549BB681A4360
:103800007B68123341F8232000BF1037BD4680BDCE
:103810000080035080B485B000AF78600846114640
:103820001A460346FB700B46BB7013467B70FB7851
:10383000002B02D1194BFB6001E0194BFB607B6848
:103840009B00FA681344FB60BA787B781B041A4328
:10385000FB681A60FB78002B0CD1124BD3F834357F
:1038600001217A6801FA02F211460E4A0B43C2F8AE
:1038700034350CE00B4BD3F834357A680C32012127
:1038800001FA02F21146074A0B43C2F8343500BF71
:103890001437BD465DF8047B704700BF38C5035040
:1038A00068C5035000C0035080B400AF034B5B6990
:1038B0001846BD465DF8047B704700BF00C0075046
:1038C00080B584B000AF7860104B03F580531A4682
:1038D0004FF480335366FFF7E7FFF860FB689B09FE
:1038E000DBB203F03F03DAB27B689A70FB68DBB2AD
:1038F00003F03F03DAB27B685A70FB681B0BDAB245
:103900007B681A7000BF1037BD4680BD0080005034
:1039100080B483B000AF0346FB7197F90730002BEA
:103920000BDBFB7903F01F02074997F907305B09AE
:10393000012000FA02F241F8232000BF0C37BD46F7
:103940005DF8047B704700BF00E100E080B483B005
:1039500000AF0346FB7197F90730002B0CDBFB79B6
:1039600003F01F02074997F907305B09012000FAAD
:1039700002F2603341F8232000BF0C37BD465DF8EA
:10398000047B704700E100E080B400AF044B1B688B
:103990001B0CDBB21846BD465DF8047B704700BFC8
:1039A0000080E00F80B582B000AFFFF7EDFF034667
:1039B000012B1CD1104B5B6E03F48023002B0CBF3A
:1039C00001230023FB710C4B03F580531A464FF47F
:1039D00080235366094B04221A60FB79002B06D022
:1039E000054B03F500531A464FF48023536600BF7E
:1039F0000837BD4680BD00BF008000502020015028
:103A000080B483B000AF786039607B6803F5005301
:103A10001A463B68536200BF0C37BD465DF8047B15
:103A2000704780B483B000AF786039607B689A6A71
:103A30003B681A437B689A6200BF0C37BD465DF84D
:103A4000047B704780B483B000AF786039607B68D6
:103A50003A68DA6000BF0C37BD465DF8047B7047FA
:103A600080B500AF01213A20FDF7F4F900230422CC
:103A700001210120FEF7DEFE00BF80BD80B500AF52
:103A800001213B20FDF7E6F902224FF4807100206E
:103A9000FFF772FE0123012200210020FFF7BAFE8A
:103AA00000BF80BDB0B592B002AF07F13403002271
:103AB0001A605A609A603A4B07F10C041D460FCD0C
:103AC0000FC40FCD0FC495E8030084E803003B1D2D
:103AD00000221A605A600323BB7101233B7000234C
:103AE0007B700023BB700023FB7001212A20FDF7AF
:103AF000B1F92C48FFF796FB02214FF4B060FDF7B7
:103B000015FE022387F83730002227492548FFF7A2
:103B10007BFC034687F839300023FB7340F2BA433D
:103B2000BB610123BB7397F8393000930023002257
:103B30001E491C48FFF79AFC03467B6104237B73F4
:103B40000023BB7101237B7201233B7185237B70B2
:103B500001233B7007F10C0207F1340319461148A9
:103B6000FEF79CFF3A463B1D19460E48FFF7CCFA7C
:103B70000F4BD3F820330E4A43F48033C2F820337E
:103B80004FF400710748FFF74CFF3020FFF7DEFECF
:103B90003020FFF7BDFE00BF4037BD46B0BD00BFBF
:103BA000105500000040005A002D31018096980009
:103BB00000C003500000000090B583B000AF1C4C63
:103BC0003B461C491846FFF79DFC22463B4693E8BE
:103BD000030082E80300164B1B68184600F098F9B2
:103BE0000FA3D3E9002300F00DFA02460B4610465E
:103BF00019460DA3D3E9002300F02EFB02460B4625
:103C00000D49C1E900230D4B01221A704FF40071D8
:103C10000848FFF7F5FE00BF0C37BD4690BD00BF5A
:103C20005C8FC2F5285C034000000000E0FFEF401D
:103C3000DC0000200040005AE8000020F0000020D6
:103C400080B500AFFFF7AEFEFFF70AFFFFF716FFE4
:103C5000FFF728FF0A4B03F580531A4601235367E9
:103C600001210848FFF7EEFE074B1B78DBB2002B63
:103C700002D0054B00221A700120FEF7AFFCF3E7DB
:103C8000004000500040005AF000002081F0004148
:103C900002E000BF83F0004330B54FEA41044FEA31
:103CA000430594EA050F08BF90EA020F1FBF54EACC
:103CB000000C55EA020C7FEA645C7FEA655C00F068
:103CC000E2804FEA5454D4EB5555B8BF6D420CDD39
:103CD0002C4480EA020281EA030382EA000083EABC
:103CE000010180EA020281EA0303362D88BF30BD5C
:103CF00011F0004F4FEA01314FF4801C4CEA1131B2
:103D000002D0404261EB410113F0004F4FEA033310
:103D10004CEA133302D0524263EB430394EA050F9B
:103D200000F0A780A4F10104D5F1200E0DDB02FA0A
:103D30000EFC22FA05F2801841F1000103FA0EF29E
:103D4000801843FA05F359410EE0A5F120050EF164
:103D5000200E012A03FA0EFC28BF4CF0020C43FA95
:103D600005F3C01851EBE37101F0004507D54FF0A2
:103D7000000EDCF1000C7EEB00006EEB0101B1F5F2
:103D8000801F1BD3B1F5001F0CD349085FEA300038
:103D90004FEA3C0C04F101044FEA445212F5800F43
:103DA00080F09A80BCF1004F08BF5FEA500C50F1E0
:103DB000000041EB045141EA050130BD5FEA4C0CC3
:103DC000404141EB0101013C28BFB1F5801FE9D220
:103DD00091F0000F04BF01460020B1FA81F308BF43
:103DE0002033A3F10B03B3F120020CDA0C3208DD0F
:103DF00002F1140CC2F10C0201FA0CF021FA02F1EA
:103E00000CE002F11402D8BFC2F1200C01FA02F159
:103E100020FA0CFCDCBF41EA0C019040E41AA2BF7E
:103E200001EB0451294330BD6FEA04041F3C1CDA46
:103E30000C340EDC04F11404C4F1200220FA04F066
:103E400001FA02F340EA030021FA04F345EA030110
:103E500030BDC4F10C04C4F1200220FA02F001FAD2
:103E600004F340EA0300294630BD21FA04F0294654
:103E700030BD94F0000F83F4801306BF81F48011ED
:103E80000134013D4EE77FEA645C18BF7FEA655C60
:103E900029D094EA050F08BF90EA020F05D054EA32
:103EA000000C04BF1946104630BD91EA030F1EBF37
:103EB0000021002030BD5FEA545C05D1400049413B
:103EC00028BF41F0004130BD14F580043CBF01F52E
:103ED000801130BD01F0004545F0FE4141F4700114
:103EE0004FF0000030BD7FEA645C1ABF19461046EF
:103EF0007FEA655C1CBF0B46024650EA013406BFF0
:103F000052EA033591EA030F41F4002130BD00BFAE
:103F100090F0000F04BF0021704730B54FF480646B
:103F200004F132044FF000054FF0000150E700BFEC
:103F300090F0000F04BF0021704730B54FF480644B
:103F400004F1320410F0004548BF40424FF0000138
:103F50003EE700BF42004FEAE2014FEA31014FEA7B
:103F600002701FBF12F07F4393F07F4F81F06051CA
:103F7000704732F07F4208BF704793F07F4F04BF15
:103F800041F40021704730B54FF4607401F00045F2
:103F900021F000411CE700BF50EA010208BF704752
:103FA00030B54FF000050AE050EA010208BF704743
:103FB00030B511F0004502D5404261EB41014FF4AC
:103FC000806404F132045FEA915C3FF4D8AE4FF0B4
:103FD00003025FEADC0C18BF03325FEADC0C18BF97
:103FE000033202EBDC02C2F1200300FA03FC20FAE8
:103FF00002F001FA03FE40EA0E0021FA02F1144435
:10400000BDE600BF70B54FF0FF0C4CF4E06C1CEA4D
:1040100011541DBF1CEA135594EA0C0F95EA0C0FBE
:1040200000F0DEF82C4481EA030621EA4C5123EA31
:104030004C5350EA013518BF52EA033541F4801160
:1040400043F4801338D0A0FB02CE4FF00005E1FB13
:1040500002E506F00042E0FB03E54FF00006E1FB5D
:1040600003569CF0000F18BF4EF0010EA4F1FF04A0
:10407000B6F5007F64F5407404D25FEA4E0E6D41E0
:1040800046EB060642EAC62141EA55514FEAC520F1
:1040900040EA5E504FEACE2EB4F1FD0C88BFBCF56D
:1040A000E06F1ED8BEF1004F08BF5FEA500E50F11E
:1040B000000041EB045170BD06F0004646EA0101E4
:1040C00040EA020081EA0301B4EB5C04C2BFD4EB16
:1040D0000C0541EA045170BD41F480114FF0000E0F
:1040E000013C00F3AB8014F1360FDEBF002001F07D
:1040F000004170BDC4F10004203C35DA0C341BDCF7
:1041000004F11404C4F1200500FA05F320FA04F0C8
:1041100001FA05F240EA020001F0004221F00041FC
:1041200010EBD37021FA04F642EB06015EEA430E6F
:1041300008BF20EAD37070BDC4F10C04C4F120059F
:1041400000FA04F320FA05F001FA04F240EA020052
:1041500001F0004110EBD37041F100015EEA430E23
:1041600008BF20EAD37070BDC4F1200500FA05F243
:104170004EEA020E20FA04F301FA05F243EA0203C2
:1041800021FA04F001F0004121FA04F220EA0200D1
:1041900000EBD3705EEA430E08BF20EAD37070BD17
:1041A00094F0000F0FD101F00046400041EB0101F7
:1041B00011F4801F08BF013CF7D041EA060195F0D9
:1041C000000F18BF704703F00046520043EB030393
:1041D00013F4801F08BF013DF7D043EA0603704780
:1041E00094EA0C0F0CEA135518BF95EA0C0F0CD08B
:1041F00050EA410618BF52EA4306D1D181EA0301D1
:1042000001F000414FF0000070BD50EA410606BFCA
:104210001046194652EA430619D094EA0C0F02D10F
:1042200050EA013613D195EA0C0F05D152EA033654
:104230001CBF104619460AD181EA030101F0004172
:1042400041F0FE4141F470014FF0000070BD41F0BB
:10425000FE4141F4780170BD70B54FF0FF0C4CF495
:10426000E06C1CEA11541DBF1CEA135594EA0C0FB4
:1042700095EA0C0F00F0A7F8A4EB050481EA030E01
:1042800052EA03354FEA013100F088804FEA0333E8
:104290004FF0805545EA131343EA12634FEA0222B6
:1042A00045EA111545EA10654FEA00260EF0004177
:1042B0009D4208BF964244F1FD0404F5407402D2C9
:1042C0005B084FEA3202B61A65EB03055B084FEA5A
:1042D00032024FF480104FF4002CB6EB020E75EB57
:1042E000030E22BFB61A754640EA0C005B084FEA7F
:1042F0003202B6EB020E75EB030E22BFB61A7546FC
:1043000040EA5C005B084FEA3202B6EB020E75EB46
:10431000030E22BFB61A754640EA9C005B084FEABE
:104320003202B6EB020E75EB030E22BFB61A7546CB
:1043300040EADC0055EA060E18D04FEA051545EABA
:1043400016754FEA06164FEAC30343EA52734FEA63
:10435000C2025FEA1C1CC0D111F4801F0BD141EADC
:1043600000014FF000004FF0004CB6E711F4801F41
:1043700004BF01430020B4F1FD0C88BFBCF5E06F21
:104380003FF6AFAEB5EB030C04BFB6EB020C5FEA31
:10439000500C50F1000041EB045170BD0EF0004E86
:1043A0004EEA113114EB5C04C2BFD4EB0C0541EAB8
:1043B000045170BD41F480114FF0000E013C90E6B5
:1043C00045EA060E8DE60CEA135594EA0C0F08BF79
:1043D00095EA0C0F3FF43BAF94EA0C0F0AD150EA78
:1043E00001347FF434AF95EA0C0F7FF425AF10460B
:1043F00019462CE795EA0C0F06D152EA03353FF433
:10440000FDAE1046194622E750EA410618BF52EAAF
:1044100043067FF4C5AE50EA41047FF40DAF52EA83
:1044200043057FF4EBAE12E703685A004CBF43F03C
:10443000004323F000431844704700BF2DE9F047C4
:1044400039B301F1FF38064617464FF000094546DB
:1044500019EB050148BF0131491006EBC10ACC0038
:104460005046FFF7E1FF08348845034606EB040099
:1044700009D0BB4209D8FFF7D7FF013801F1010984
:10448000B842E5D307E0BB4205D9894501F1FF35C4
:10449000DED14FF0000A5046BDE8F087012807D072
:1044A000022807D00028044B14BF0020184670478C
:1044B0000248704702487047AD4B0000B14B000006
:1044C000B54B0000234B30B5044683B08D1E43B37B
:1044D00001A9284600E000BFF0B101992A46FFF784
:1044E000ADFF0146C0B1FFF79FFF4B68A064012BF1
:1044F0002CD0002B01F1040024DBFFF795FF0023F3
:10450000C4E913030368002B11DBFFF78DFF03469B
:104510000020236103B030BD00230920236103B0D4
:1045200030BD0D480D49091AC9100191D6E7C3F3F2
:104530000360FFF7B3FF0028206114BF00200920AB
:1045400003B030BD0123C4E91303DBE700230520DA
:104550002361DFE7000000005855000020560000EE
:104560000368DA0710B5044606D49B0700F148003B
:1045700009D500F08FFC2368590709D51A070ED515
:10458000DB0613D510BD00F07DFC23685907F5D478
:1045900004F1D00000F086FC23681A07F0D404F57B
:1045A000A87000F087FC2368DB06EBD404F5E87004
:1045B000BDE8104000F0C2BC092070470346006807
:1045C00000B11844704700BF704700BF70B5044683
:1045D0000E46316C2046FFF775FF054698B9D6F8B0
:1045E00040C03246236921460120C4F814C09847D0
:1045F0000828EED0072806D12846316CFFF7E4FFE3
:10460000301D00F033FC00F0C1FE00BF2DE9F04783
:1046100001F1040CADF5747DC7680646D0F818802A
:1046200014460DF1140E04AD4FF00009BCE80F0064
:10463000AEE80F00BCE80F00AEE80F00BCE80F00CA
:10464000AEE80F009CE80F008EE80F00C5F8009060
:1046500023E02B6C4FF4F07229467CA8736100F0C4
:10466000D5FE7CAA31463369504698478A9B21463D
:10467000814603933246039C334601206C64CDE9A6
:104680000058B8470446E8B94FF4F0727CA92846B0
:1046900000F0BCFEB9F1080F1BD10934296C30467B
:1046A000FFF710FF81465FFA84FA0028D1D0AC6B87
:1046B000334632464AF010016C640120CDE90058BF
:1046C000B84708B14FF0090948460DF5747DBDE8BB
:1046D000F087B9F1070FF5D12046296CFFF774FF79
:1046E00005A800F0C3FB00BF406C7047F0B5CB6B72
:1046F000F9B001F1040C0E460B6401AC05464FF015
:10470000FF37BCE80F000FC4BCE80F000FC4BCE8C3
:104710000F000FC49CE80F0084E80F00009706E02C
:104720002B696A46294698470828044608D11099FB
:104730002846FFF7C7FE0028F2D0092079B0F0BD67
:104740006846FFF70DFF062CF7D131462846FFF7E4
:104750003DFF00BF10B4DC6BC160194682610022CE
:104760001C6410BC52E700BF70B54369C6680B6497
:10477000AEB903690A4604460D4601460220984731
:10478000072805D008280FD129462046FFF71EFF2D
:104790003046296CFFF718FF281D00F067FB012247
:1047A000FFF734FF00F0F2FD00F0F0FDC2682AB11F
:1047B000D1F83CC00022C1F840C027E796E700BF0F
:1047C000704700BF836801460BB10120184770474E
:1047D000012915D00CD88BB90F2A94BF00210121D3
:1047E00061B900EB820208465368009A1360704773
:1047F0000339012994BF012002207047022070472D
:104800000846704710B584B000230A4603AC194629
:104810000094FFF7DDFF039804B010BD012915D007
:104820000CD88BB90F2A94BF0021012161B9009BDC
:1048300000EB820208461B68536070470339012968
:1048400094BF01200220704702207047084670473D
:1048500010B584B0002303AC03920A4619460094B5
:10486000FFF7DCFF04B010BDF0B5D36BADF50F7DE5
:10487000141D064613640DF15C0C0D464FF0FF3716
:104880000FCCACE80F000FCCACE80F000FCCACE8BD
:104890000F0094E80F008CE80F00169710E0FFF768
:1048A000D7FF294616A8B047034616AA694608202E
:1048B00083B9049B9847052804460CD009280AD0E0
:1048C00026996846FFF7FEFD03466A460C2116A8A6
:1048D000002BE4D0092416A8FFF742FE20460DF570
:1048E0000F7DF0BD2DE9F04FCC6C89B01E460D4612
:1048F00054F8043B174600F003080694002E7FD0BE
:104900001A0C1B048DF81D20D2B20593022304EB70
:1049100082048DF81C30B8F1020F2B6D08BFAC6B10
:1049200013F0010308D005A9384600F0A1FB90BBA5
:10493000082009B0BDE8F08FD4F800A0BAF1000F4C
:10494000F1D0019300F008030293022E54D0B4F882
:1049500000A0043434F8029CAB6C29F0010B0F2149
:1049600038469B44FFF74EFF834518D82AF00103D1
:104970009B44834513D94FEA49030AF0010A03F027
:10498000020343EA0A03012B00F0BF80022B00F070
:104990008980002B4DD0092009B0BDE8F08F4FEA87
:1049A00049030AF0010A03F0020343EA0A03012B58
:1049B0003AD0022B2AD0002BEDD10434D4F800A039
:1049C000BAF1000FC1D105A9384600F051FB00280B
:1049D000E1D1019B002BABD00F213846FFF712FF2E
:1049E0000E2102463846FFF733FF38466E4A0F2144
:1049F000FFF72EFF0720CFE7D4F804900834ABE789
:104A00001B0205930323ADF81C3084E7236823F0D1
:104A1000004BB8F1000F21D1002B00DA04340BF168
:104A2000010B04EB8B04C9E7B8F1000F20D1083467
:104A3000C4E7B8F1000FC0D020460434FFF7F4FCFF
:104A40000646AC63284600E000BF0028A3D03846E5
:104A500032460F21FFF7FCFE07209DE7D5F8209096
:104A60000D213846FFF7CEFE814579D02368D3E784
:104A7000D5F820900D213846FFF7C4FE8145D6D1E8
:104A8000AB6A9C42D3D120460F21FFF7CDFC0246F2
:104A90003846FFF7DDFE38462A460021FFF7D8FEEC
:104AA000072079E7236823F0004BB8F1000FD5D138
:104AB000029A12B1BBF1000FAED105F15803CDF847
:104AC0000C8004F1040AB0464FF000091E460DE0C8
:104AD000504604960022FFF771FD04AB01462846BC
:104AE0000AF1040A00E000BF00284AD1D94509F1C3
:104AF0000109EDD10D213846FFF784FE049B0246E3
:104B000006202A62C5E9093446E7B8F1000FAFD1A3
:104B100063682268991C4FEAD2723FF43CAF05F1FA
:104B200058010133049131D0201DFFF747FD04AB3C
:104B30000146284600E000BF00283FF478AF8146D8
:104B40000D213846FFF75EFEB9F1020F286222D12F
:104B50002B46049A43F82C2F6B620620AC621BE7AD
:104B6000AB6A9C4282D104230022C5F828B0C5E973
:104B70000B23E3186B632368002B0FDB01230193E6
:104B80004DE746462368DDF80C8045E70D213846A1
:104B9000FFF738FE2862049B6B62DEE70BF1010031
:104BA0000F2104EB800070E700000000002399E66D
:104BB000012397E6022395E62DE9F0430646C3B0AC
:104BC00015461C46042900F2C280DFE801F0A35913
:104BD000C02C0300002C40F0BA80102A00F2B780ED
:104BE0000368DF0600F1B78020AF384600F0B0F967
:104BF000B46B394600234FF0010C0CFA03F2204647
:104C000001332A4203D050F8042B04460A60042BD7
:104C100001F10401F1D13846B46300F08FF90020AE
:104C200043B0BDE8F083032C40F091801FFA82F876
:104C3000140C08EB1245102D00F2898003681A0746
:104C400000F1CD8020AF384600F056F9B56B07EB88
:104C5000C401B8F1000F0BD00B4601EBC8014FEABD
:104C6000C808E81A1A5843F8042B8B42FAD1454475
:104C70003846B56300F01EF9002043B0BDE8F0836C
:104C800004F0FB034FEA124895B2012B5FD1012CCF
:104C900008EB050958D0B9F1200F58D8B8F10F0F1B
:104CA00075D9052CA94600F0A480002D4FD1B36B17
:104CB00065B320AF4FF0000907EBC80703EBC5054C
:104CC000043F53F8041B9D4247F8041FF9D1B9F182
:104CD000000F0FD06F46414603EBC905102938BFBE
:104CE000102107EBC101843953F8040B9D4241F8B0
:104CF000040FF9D1012C7AD0B8F10F0FB5636AD93E
:104D0000B9F1000F02D0684600F0CCF8002043B0A3
:104D1000BDE8F083DCB9876B23461FFA82FC0120D3
:104D2000341D00FA03F13A4611EA0C0F04D052F890
:104D3000041B174644F823100133102BF1D115F44E
:104D40000050E3D1B76303E0B9F1100F0BD9022093
:104D500043B0BDE8F08323F0100300F5E870336042
:104D600000F0F6F840E7B8F10F0FF0D80368D80765
:104D700050D420AF384600F089F8B36B002D99D19C
:104D80001D4604353846B56300F07CF8BEE7B9F13E
:104D9000100F58D9052CDAD13368A9F11009DD07B5
:104DA00009D523F00103304643F0020340F8483BA5
:104DB00000F074F83368590721D420A800F06EF889
:104DC0006F46C8F11005384600F070F8002DB36B3F
:104DD00081DD20AF70E720A800F05CF890E723F0B9
:104DE000080300F5A870336000F086F82AE720AFCA
:104DF000C7E7002D3FF45BAF33685A07E0D523F0D7
:104E00000403304640F8D03B00F050F8B8F10F0FE3
:104E1000D6D8D2E723F00303304640F8483B00F0F1
:104E200035F8012CA5D0B8F10F0F3FF640AF20AFF9
:104E3000384600F033F8B36B002D7FF43BAF3846B3
:104E400000F028F862E73368D907EAD5052CE1D1EC
:104E500023F00103304620AF43F0020340F8483B03
:104E600000F01CF8384600F019F8E4E700F13401CE
:104E700091E838009C46A6464CF8045D90E8FF0F88
:104E8000E54600BD90EC210B704700BF80EC210B84
:104E9000704700BF90EC200B704700BF80EC200BE8
:104EA000704700BFD0EC200B704700BFC0EC200B58
:104EB000704700BFF0EC0201F0EC0211F0EC0221AF
:104EC000F0EC0231F0EC0241F0EC0251F0EC026146
:104ED000F0EC0271F0EC0281F0EC0291F0EC02A136
:104EE000F0EC02B1F0EC02C1F0EC02D1F0EC02E126
:104EF000F0EC02F1704700BFE0EC0201E0EC0211BF
:104F0000E0EC0221E0EC0231E0EC0241E0EC025185
:104F1000E0EC0261E0EC0271E0EC0281E0EC029175
:104F2000E0EC02A1E0EC02B1E0EC02C1E0EC02D165
:104F3000E0EC02E1E0EC02F1704700BFB0FC01815F
:104F4000B0FC0191B0FC01A1B0FC01B1704700BF01
:104F5000A0FC0181A0FC0191A0FC01A1A0FC01B179
:104F6000704700BFEC4600B52DE900502DE9FF1F4A
:104F70004FF000032DE90C0001A9FFF7B7FBDDF8A6
:104F800040E012B0704700BFEC4600B52DE900507C
:104F90002DE9FF1F4FF000032DE90C0001A9FFF7D9
:104FA000E3FBDDF840E012B0704700BFEC4600B50F
:104FB0002DE900502DE9FF1F4FF000032DE90C00F3
:104FC00001A9FFF7F3FBDDF840E012B0704700BF26
:104FD000EC4600B52DE900502DE9FF1F4FF000030E
:104FE0002DE90C0001ABFFF7B5FBDDF840E012B096
:104FF000704700BFEC4600B52DE900502DE9FF1FBA
:105000004FF000032DE90C0001AAFFF72DFCDDF89D
:1050100040E012B0704700BF027A03468AB9427A74
:10502000B2B14168013A4FF0030C10B442720C1D4A
:10503000086883F808C002025C60000E10BC1A60A9
:1050400070470068013A1A720202000E1A60704737
:10505000B020704710B584B000230C2203AC194671
:105060000094FFF7B5FB039804B010BDF2E700BF52
:105070002DE9F0434FF0000885B006460D4628465E
:10508000FFF7CAFFB028044600F0BC80070620D511
:1050900000F0F003802B4ED0902B37D0A02B61D0A6
:1050A000B02B76D0C02B00F08D8000F0F803D02B11
:1050B0000BD100F00702052301213046013242F4F2
:1050C0000022FFF779FD0028D9D0092005B0BDE8FE
:1050D000F08383000DF10C090D223046DBB2CDF8D0
:1050E00000901F1D00231946FFF772FB039B60060B
:1050F0004FF00D023046CDF800904CBFDF1BFF187B
:10510000002303971946FFF789FBB8E700F00D036A
:105110000D2BDAD003AF002300F00F023046194602
:105120000097FFF755FB00230D22304619460097E4
:10513000FFF774FBA3E724022846FFF76DFF204327
:10514000B0F5004FC1D0040100233046A2B2194689
:10515000FFF732FD0028B8D114F4004F18BF4FF00C
:1051600001088CE7C2430107304602F007034FF401
:105170007F6242FA03F24FF0000302F47F621946A5
:1051800048BF42F48042FFF717FD00283FF477AF95
:105190009BE7B1283BD0B22800F0A180B32841D0D2
:1051A00000F0FC03B42B90D000F0070201231A4456
:1051B00042F4002219463046FFF7FEFC00283FF477
:1051C0005EAF82E7C62851D0C72862D000F0F8034E
:1051D000C02B71D0C82876D0C9287FF476AF284676
:1051E000FFF71AFF020300F00F0002F470220130F3
:1051F0000243012105233046FFF7DEFC00283FF47F
:105200003EAF62E7B8F1000F1FD000205EE72846EE
:10521000FFF702FF024600283FF457AF10F0F003FB
:10522000C8D052E72846FFF7F7FE00F00F0302034D
:105230003046013302F470221A4301231946FFF766
:10524000BBFC00283FF41BAF3FE703AC43460E22F4
:10525000414630460094FFF7BBFA43460F223046E2
:1052600041460094FFF7DAFA40462FE72846FFF759
:10527000D3FE00F00F0302033046013302F4702224
:105280001A4303231946FFF797FC00283FF4F7AEB3
:105290001BE72846FFF7C0FE024600283FF415AF83
:1052A00010F0F0037FF411AF04213046FFF784FCC7
:1052B00000283FF4E4AE08E700F00F0203230132B8
:1052C00042F4202276E72846FFF7A6FE00F0F0021F
:1052D00000F00F031032013343EA023289E7002362
:1052E0000DF10C090D2230461946CDF80090FFF75C
:1052F0006FFA2846FFF790FE02064FF002040BD526
:1053000000F07F00039BA040073418440390284618
:10531000FFF782FE0306F3D4039B00F07F02CDF873
:1053200000903046A24003F501731A440023039213
:1053300019460D22FFF772FAA1E600BFC26C0B46B8
:105340004FF0030C1846083252F8043C00B585B003
:10535000029201A91A0E8DF80CC01B028DF80D20C7
:105360000193FFF785FE05B05DF804FB08B5FFF774
:105370007DFE806C08BD00BF08B5FFF777FEC06CEE
:10538000C379023300EB830008BD00BF062008B5D7
:1053900000F07AF8012000F0A3F8000008B5074BF0
:1053A000044613B1002100E000BF054B1868836A72
:1053B00003B19847204600F093F800BF00000000BA
:1053C0003855000070B50D4D00260D4C641BA4101F
:1053D000A64209D10B4D00260B4C00F083F8641B4C
:1053E000A410A64205D170BD55F8043B013698477C
:1053F000EEE755F8043B01369847F2E7AC00002091
:10540000AC000020AC000020B00000200A44431E85
:10541000914200D1704710B511F8014B914203F849
:10542000014FF9D110BD02440346934200D17047A9
:1054300003F8011BF9E71F2938B504460D4604D9C6
:10544000162303604FF0FF3038BD426C12B152F8A2
:1054500021304BB9204600F031F82A46014620465B
:10546000BDE8384000F018B8012B0AD0591C03D110
:10547000162303600120E7E70024284642F8254070
:1054800098470020E0E70000024B01461868FFF74C
:10549000D2BF00BF1000002038B50023064D0446DF
:1054A000084611462B6000F013F8431C02D12B680C
:1054B00003B1236038BD00BFF400002000F000B845
:1054C000024B58224FF0FF301A607047F400002062
:1054D000024B58224FF0FF301A607047F400002052
:1054E000FEE700BFF8B500BFF8BC08BC9E46704799
:1054F000F8B500BFF8BC08BC9E467047000000002D
:1055000001B40248844601BC604700BF750000201A
:10551000000002000000000000000000BA040000CB
:105520000000000000000200000000000000000079
:10553000BA04000000000000140000200000000079
:1055400008B10181B0B000840000000008B1018101
:08555000B0B00084000000006F
:10555800A8B2FF7F010000001CB3FF7FB0B0B0808D
:105568006CB3FF7F0100000054EFFF7FB0A90280F9
:10557800E8EFFF7FB0B0A88038F0FF7F010000009F
:1055880044F0FF7FB0B0AA807CF0FF7FAE73B2809A
:1055980050F1FF7F010000004CF1FF7FAB3F3880E6
:1055A800ACF1FF7F01000000B8F1FF7FB0B0AA8026
:1055B800F4F1FF7F01000000A8F2FF7FAB0EB2807C
:1055C8001CF3FF7FB0AF0880DCF5FF7F010000000F
:1055D800E0F5FF7FAD3F02808CF8FF7F01000000FF
:1055E8006CFAFF7FB0A803807CFAFF7F01000000FF
:1055F80078FAFF7FB0AD04803CFDFF7F0084048013
:1056080064FDFF7F34FFFF7F68FDFF7F38FFFF7F6A
:0856180074FDFF7F010000009A
:0C5620002C560000000000202D000000AF
:10562C0000F0490200800000C0EA2101C0EA21011B
:10563C00140000200000000000000000000000002A
:10564C00000000000000000000000000000000004E
:10565C00000000000000000000000000000000003E
:10566C00000000000000000000000000000000002E
:10567C00000000000000000000000000000000001E
:10568C00000000000000000000000000000000000E
:10569C000000000080B483B000AF30BF0A4B1B6821
:1056AC0003F00103002B08D000237B6002E07B6831
:1056BC0001337B607B68052BF9DD00BF0C37BD46E1
:1056CC005DF8047B704700BFF0ED00E0E5070000DB
:0456DC00C107000002
:040000030000087D74
:00000001FF
